:100000000C942A000C9400000C9400000C94000046
:100010000C9400000C9400000C9400000C94000060
:100020000C9400000C9400000C9400000C94000050
:100030000C9400000C9400000C9400000C94000040
:100040000C9400000C9400000C9400000C94000030
:100050000C940000F894EE27ECBBF1E0FBBFEBBF83
:10006000E5BF8DE0A2E0BB27ED938A95E9F780E03C
:1000700094E0A0E6ED930197E9F7EFE5EDBFE4E04A
:10008000EEBFC0E6D1E00C944500D098D89AA09A73
:10009000C89909C0A89AA4EFB1E008D0A898A4EF25
:1000A000B1E004D001C0A898F3CFFFCF109639F08B
:1000B000A89580ED97E00197F1F71197C9F708959A
:00000001FF
