:0A0000000C9438010C9437050C94A1
:10000A003F050C9400000C9400000C9400000C9422
:10001A0000000C9400000C9400000C9400000C9456
:10002A0000000C9400000C9400000C9400000C9446
:10003A0000000C9400000C9400000C9400000C9436
:10004A0000000C9400000C9400001027E8036400E0
:10005A000A00010000100001100001000100000068
:10006A00FFFF0000CB0081004501AA014F00E70312
:10007A006F007E00800082008400E70350726F6682
:10008A000000000000000000000000000000000066
:10009A0041686D6564000000000000000000000077
:1000AA0000000000416D7200000000000000000026
:1000BA0000000000000000004164656C00000000C0
:1000CA000000000000000000000000004F6D617297
:1000DA000000000000000000000000000000000016
:1000EA004D41585F49440000000000000000000034
:1000FA00000000005072657373202A00506C65611D
:10010A007365207072657373202A00456E74657278
:10011A0020796F757220494400456E7465722079A2
:10012A006F75722050433A0057656C636F6D652C8A
:10013A0020257300536F7272792C2077726F6E6765
:10014A002050430057726F6E6720494400256300B0
:10015A00456E746572206F6C64205043203A0045E6
:10016A006E746572206E6577205043203A00436FA3
:10017A006E746163742041646D696E0052652D6509
:10018A006E746572206E6577205043004E65772045
:10019A0050432073746F7265640050432069732062
:1001AA0073746F72656400456E7465722041646D84
:1001BA00696E20504300456E7465722053747564ED
:1001CA00656E7420494400456E746572206E6577C9
:1001DA00205043002564000080C008000400660027
:1001EA0008006001FE000F006801060101007701A6
:1001FA0005010E00780115010F0086012301100088
:10020A0095013E010900A5014E010100AE0105015B
:10021A000E00AF0115010F00BD015A010F00CC01FC
:10022A0069010E00DB0178010E00E9017801100076
:10023A00F70186010E00070278010E0015029601E9
:10024A000D002302A40111003002C0010D00410279
:10025A00D1010E004E0278010E005C027801020004
:10026A00B302E2010000F894EE27ECBBF1E0FBBF19
:10027A00EBBFE5BF8DE0A2E0BB27ED938A95E9F7D6
:10028A0080E094E0A0E6ED930197E9F7E4EEF1E06F
:10029A0085919591009761F0A591B591059015907A
:1002AA00BF01F00105900D920197E1F7FB01F0CF34
:1002BA00EFE5EDBFE4E0EEBFC0E6D1E00C946501E6
:1002CA0003D025D052D0FFCFA0E15CD4E7E0E4BB55
:1002DA00E8EFE5BBE3E0E7BBC09AC19A8B98939A33
:1002EA008A98929A8D9A7894EBB7E064EBBFE5B757
:1002FA00E260E5BFE5B7EE7FE5BFEBB7E068EBBFCD
:10030A00E5B7E860E5BFE5B7EB7FE5BF0895EF978E
:10031A00EF97629780E960E070E0EEE6F0E0E7D6FA
:10032A00DAD606E010E0DED520173107C8F4A4E1DA
:10033A00A29FF001A39FF00DDE015C96EA0FFB1F5E
:10034A00FA93EA93F901DE015296D1D5F901DE0159
:10035A001896CDD5D3016AD23F012F5F3F4FE4CF24
:10036A00C1D6EF96EF9666960895442009F4C8D54B
:10037A004424EEEFF0E0C8D5CDD5A0E6B1E02FD405
:10038A00CED511F406D004C0CFD5A8E6B1E0F2D29A
:10039A00F7CFCFD547E751E0C6D3E5E1F1E0B4D5D1
:1003AA00CED5B8D5A8E7B1E01AD4CDD5E9F0D1D5E4
:1003BA00E3E2F1E0A9D5AED5A6E8B1E010D4BFD505
:1003CA00CFD569F0D9014CD1AF01ADD3E2E3F1E069
:1003DA00FA93EA93FA01CCD5F7D2FDD204C0A4D598
:1003EA00A5E9B1E0C7D204C0CAD5A5EAB1E0C2D234
:1003FA00BCDF76D60AC32297E0E0E883E98399D581
:10040A0040E050E0E0E25E2E4330E0E05E0708F0B4
:10041A004EC085D541F0E3E2E51521F40024041627
:10042A00050609F005C080D5AEEAB1E0A3D23EC008
:10043A00E3E2E515C9F4EE81FF813197EE83FF838C
:10044A00EA93A1E05ED3A0D5E0E0F0E060E070E0DE
:10045A00A0D541505040D801EAE0F0E093D68F0190
:10046A00AA2009F4480122C04F5F5F4F97D5EA934B
:10047A00A1E047D3E1E0EB1521F4E4E0F1E044D553
:10048A0006C082D5E52DFF276627772782D5E52D79
:10049A00F0E0F0979F01AAE0A09FF001A19FF00D64
:1004AA008F01020F131FAA2009F44801ADCFBB2404
:1004BA00ACEBB2E083D637D3F801CFC0A898A99A9B
:1004CA00AA9AE3B3E63F29F49B9BFECFE1E30895A2
:1004DA0014C0EE3E29F49C9BFECFE4E308950DC0C0
:1004EA00EE3D29F49D9BFECFE7E3089506C0EE3B5F
:1004FA0021F49E9BFECFEAE20895A89AA998AA9AA7
:10050A00E3B3E53F29F49B9BFECFE2E3089514C0D1
:10051A00ED3E29F49C9BFECFE5E308950DC0ED3D29
:10052A0029F49D9BFECFE8E3089506C0ED3B21F434
:10053A009E9BFECFE0E30895A89AA99AAA98E3B3EE
:10054A00E33F29F49B9BFECFE3E3089514C0EB3EFF
:10055A0029F49C9BFECFE6E308950DC0EB3D29F4F8
:10056A009D9BFECFE9E3089506C0EB3B21F49E9BD9
:10057A00FECFE3E20895A2CF18D558D08F01F90132
:10058A00D801FAD56AC0A7D518D5CDD2AFEAB1E05D
:10059A00EAD2D5D4D8D4C1F0E1E0BE2EADEBB1E0B9
:1005AA00E2D2CDD4DDD451F0BED2E1E0BE2EACEC25
:1005BA00B1E0D9D2C4D4D9010ED005C0B4D2DFD4A7
:1005CA00ABEDB1E0D7D105C0AED2D9D4A9EEB1E036
:1005DA00D1D10C94C405BA93AA93ABD440E050E0AD
:1005EA000ADF8F01B6D4A7EFB1E0BDD2A8D403DFEA
:1005FA009F012017310729F0C2D4A7E0B2E0BAD18F
:10060A0014C0AE81BF8141D0AF014E5F5F4FDAD4D3
:10061A00D9D4425050401A930A935A934A93A1E06C
:10062A001ED181D2A5E1B2E09ED217C052D5AD014A
:10063A00C4D4CFD4D8015AD19F0152D5E6C1B5D47A
:10064A0024D08F010E5F1F4FCAD4C9D40250104064
:10065A00CDD469D2A3E2B2E086D242D528960895D3
:10066A00CBD4B7D40E5F1F4FD80165D19F0138D5BF
:10067A00CCC11A930A938D0108D0EF3FAFEFFA0766
:10068A0011F4E0E0D0C0E1E0CEC0BA93AA93239778
:10069A0050D440E050E000E010E00615170560F580
:1006AA00D801B8D0EE83AE812CD0AF01042E052A32
:1006BA0069F4D8011BD19F01E985FA85E217F3078E
:1006CA0011F4F8011BC00F5F1F4F13C0E1E0F0E007
:1006DA00E417F50719F40F5F1F4F0BC0E2E0F0E0D3
:1006EA00E417F50731F4AE813FD0EF83F8870E0F98
:1006FA001F1F0F5F1F4FD1CFEFEFFFEFF1D42B96E4
:10070A000895AA93E8D4AC81B0E0E6E011D5E1708F
:10071A00F0708F01AC81B0E0E7E00AD5E170F070CB
:10072A009F016FD421F400240016010609F004C0C9
:10073A00E1E0F0E00C944D0700240216030611F4E0
:10074A0065D409F004C0E0E0F0E00C944D0759D4F8
:10075A0011F45CD409F004C0E2E0F0E00C944D0717
:10076A00E3E0F0E00C944D07B6D43A2F00E010E035
:10077A00032F11271A930A93A6E0B0E03FD18F0105
:10078A001A930A93A7E0B0E039D18F010C94C405FB
:10079A00D0D340E050E0C7D1E1E0BE2EE1EBF1E07A
:1007AA00B3D3CDD328DE8F01EFE6F0E0FA93EA93D4
:1007BA00D801E2DEE030D9F0B6D1A0E3B2E0D3D17D
:1007CA00BED3C1D371F0AFD1E1E0BE2EA1E4B2E055
:1007DA00CAD1B5D310DEAF013A932A93DA012FDFDB
:1007EA0005C0A1D1A1D3AEE4B2E0C4D005C09BD16B
:1007FA00C6D3ACE5B2E0BED073D407C16CD41A2F0D
:10080A002C813D81E199FECF3FBB2EBB1DBBE29AF5
:10081A00E19AFAC01A930A938D01E199FECF1FBBA0
:10082A000EBBE09AEDB309911991089552D48D0146
:10083A002E813F81488559855A934A931A930A9380
:10084A00A0E00DD08F01D2D38F01EA85FB85FA9300
:10085A00EA93D8011ED08F0143D42C96089539D437
:10086A003A2F4E815F81E885F985E070F370EF2FAA
:10087A00F0E01E2F303011F0106801C01064E885D6
:10088A000E2FC9D3A12FBADFC6D3A02FB7DFFA0123
:10089A002AC0BA93AA934DD300E010E000E010E01A
:1008AA00A885B985A00FB11FEC91E03019F00F5F50
:1008BA001F4FF6CF502F506C71D3FA93EA93A52F9E
:1008CA009DDF10D32017310760F468D3FA93EA93B7
:1008DA00AA85BB85A20FB31FAC9190DF2F5F3F4F54
:1008EA00F1CFEE81FF81FCD32A96089585D3DA01F0
:1008FA00119690DF0E2F1127DA0193D33A932A9398
:10090A00A0E0B0E06FD0309731F01A930A93A8E0D4
:10091A00B0E06FD08F013A932A93A1E0B0E062D0A1
:10092A00309731F01A930A93A9E0B0E062D08F01B0
:10093A00F801D6D36AC0CDD3AD013FD3DA014F5FF8
:10094A005F4F6FD3F90121503040309779F0F801A9
:10095A000F5F1F4FEF55FD4FFF93EF93DA014F5F84
:10096A005F4F58DFAF91BF91EC93ECCFE1EAF2E031
:10097A00B7D34BC066D3022E032AE9F02297E0E0F0
:10098A00E883E983A881B981599774F4959AA2E01A
:10099A00B0E014D49598A2E0B0E010D4E881F981CF
:1009AA003196E883F983EECFA4E6B0E007D421506C
:1009BA0030402296E0CFD8011FD1309721F0B3D032
:1009CA0045D3F801D5D220C0C09AC198A8EEB3E0A9
:1009DA00F5D3C19A0895C098C19AA8EEB3E0EED3B0
:1009EA00C09A08952ED3E02FD901B5D3E170F070E3
:1009FA000BC027D330D3E22BF32B06C022D32BD341
:100A0A00E095F095E223F3236DD3269608951A9381
:100A1A001A2F76D21BD3EAE6F2E0AAD2EFEFFFEF63
:100A2A00E815F905B1F08BD2103069F0082C0928C5
:100A3A0049F0E4E0F1E068D2D401EAE0F0E0A2D3C0
:100A4A004F01F4CF06C0EEEDF1E0FA93EA93F40118
:100A5A008FD2EFEFFFEF4F01AA24103011F0E1E03F
:100A6A00BE2EBBC0FDD211F011E0BB24E1E0AE2ED8
:100A7A008FDE07C0F5D211F011E0BB24E1E0AE2E03
:100A8A0082DDA12FC4DF1991E991EFBFF991E991B4
:100A9A00B991A9919991899179916991F99019904E
:100AAA00099018951A931A2F14FF02C0DB9A01C0F5
:100ABA00DB9815FF02C0DC9A01C0DC9816FF02C061
:100ACA00DD9A01C0DD9817FF02C0DE9A01C0DE98E8
:100ADA008DE08A95F1F7DA9A8DE08A95F1F7DA983E
:100AEA008DE08A95F1F779C0AA93A881DBDFE881C6
:100AFA00E295E883A881D6DF85E88A95F1F7219601
:100B0A0008951A930A931A2F0A81E12FF0E0ED54FF
:100B1A00FD4FE081E00FAE2FE7DFD02EC12E198105
:100B2A00088123960895A2E0ACD2ACE0DDDFA1E013
:100B3A00A8D2E0E0CE2EDE2E08951A931A2F1A308C
:100B4A0021F0E091B702DE1640F0E0E0EA93C394A8
:100B5A00AC2DD7DF1A3009F440C0D394D89AA12F0C
:100B6A00C3DFD8983AC0B7D29D01D9012F5F3F4F52
:100B7A00EC911E2FE03019F0A12FDFDFF6CFB2D2B1
:100B8A00249608951A931A2FD39AD49AD59AD69A54
:100B9A00D29AD09AD19ADA98D898D9981093B7025B
:100BAA00E12FE058E093B502E12FE054E093B6025A
:100BBA00A4E1B0E003D369D268D267D2A0E272DFBF
:100BCA0088EC90E00197F1F7A8E28EDFA4E08CDFD1
:100BDA00A5E88ADFA6E088DFA6DF19910895BA930F
:100BEA00AA93E991F991A991B991CD0161916D9376
:100BFA006623E1F7FC010895BA93AA93A991B991E2
:100C0A00EE27FF276D91662311F03196FBCF0895E9
:100C1A00BA93AA93AA27BB27E991F99105900020D4
:100C2A0011F01196FBCFFD010895BA93AA93269766
:100C3A0050D210E0AC85BD85E0E0F0E0ED93FC9386
:100C4A00EA89FB893196EA8BFB8B3197E4912E2F47
:100C5A00E03009F40BC1E12FE03031F4253211F410
:100C6A0011E001C019D201C1E130A1F4253211F419
:100C7A0013D2FAC012E040E000E02D3211F401E094
:100C8A00F4C02B3211F44BE2F0C0203211F440E2EE
:100C9A00ECC002C0E23039F450E013E0203311F422
:100CAA000068E3C003C0E33009F0DFC0203310F06E
:100CBA002A3308F007C0AAE05A9F502DE22FE053CA
:100CCA005E0FD3C0E22FE33639F4EDD1E889F98912
:100CDA00A481AA93EED1C8C0E33729F4E4D1EFD1B5
:100CEA008BDF1E2F07C0E03749F4DDD1E8D190DF52
:100CFA001E2F086002600F7730E03AC0E43611F028
:100D0A00E93611F4046002C0E53731F4E4E5F0E0B5
:100D1A00EE83FF8315E00CC0E83511F4086003C0C8
:100D2A00E83709F0A1C0EEE5F0E0EE83FF8314E0B6
:100D3A0002FF15C0B8D1A889B9891496ED91FD9121
:100D4A00EA87FB87AB85AA2322F4DDD1EA87FB87F2
:100D5A004DE2403011F01F5F01C00B7F09C0A3D1E3
:100D6A00A889B9891496ED91FC911197EA87FB87B6
:100D7A0000FD10C0151770F407FF08C002FF04C079
:100D8A000B7F242F115001C020E301C020E284D13F
:100D9A005150F0CF312F01FF16C0303099F003FFC8
:100DAA0006C0EE81FF812591EE83FF8305C0AE81E7
:100DBA00BF812D91AE83BF836FD1503009F051505E
:100DCA003150EBCF48C020E3EE81FF81EED1E887B6
:100DDA00F987EE81FF813296EE83FF83E885F985F4
:100DEA00AA85BB85AE17BF0750F02F5FA885B985C6
:100DFA00EA85FB85EA1BFB0BEA87FB87EFCF2A33E1
:100E0A0028F003FF02C0295F01C0295D04FD19C053
:100E1A00213320F4A885B985119709F409C053171D
:100E2A0010F000FF01C011C020E207FF0AC020E352
:100E3A00006102FF06C00B7F4A933BD1503009F094
:100E4A0051502AD1503009F051503150A885B985F6
:100E5A00129708F0B8CF00FF07C0503029F0515060
:100E6A00E0E2EA9326D1F9CF10E0EACEAC85BD855F
:100E7A00ED91FD9135D1649608952DD18D013C8176
:100E8A00A32F5BDED801ED91FD913196FE93EE938F
:100E9A0029D125960895FF92F82E26971A930A9338
:100EAA00DE0114960024AF0DB01D8D01E0E0EC8345
:100EBA00ED83EE83EF83DE0118960024AF0DB01D9B
:100ECA00ED91FD91FA93EA931A930A93E2E4F7E01B
:100EDA00FA93EA93DE011896A8DE1981088128960A
:100EEA00FF90089520E030E020E030E00895EE0F12
:100EFA00FF1FAE0FBF1FED91FD91FA93EA9308957C
:100F0A00A8EEB3E05BD10FCEFA93EA9380E0C3DF99
:100F1A0022960895EAE6F2E0FA93EA930895CEDA81
:100F2A005E2EEAE2E5150895E1E0F0E0FA93EA932D
:100F3A000895CFD000E010E020E030E00895E0E02E
:100F4A00EA93A1E0DECD57DA9F01D90192DBE030C6
:100F5A000895E9DDE1E0BE2EEFEFFFEF4F010895BE
:100F6A004ADA8F013A932A93D80106DBE0300895D2
:100F7A00662777271ED184E08EDF26960895E2E061
:100F8A00F0E0FA93EA930895E7E5F1E0FA93EA9339
:100F9A0008950FD184E07FDF26960895EE81FF81C0
:100FAA003196EE83FF833197089593D09D014E8148
:100FBA005F8100E010E0DA01089500E010E020E02F
:100FCA0030E00895FA014F5F5F4FFA93EA93A0E386
:100FDA0015CCDA015ADB8F010E5F1F4F0895F80115
:100FEA000F5F1F4FFA93EA93A0E308CC3A932A9330
:100FFA001A930A93A1E033CC6CD0AD0100E010E063
:10100A000895E1E0F0E0E217F3070895E1E0F0E087
:10101A00E017F1070895FA014F5F5F4FFA93EA93D9
:10102A000895F8DB2E2F33273A932A93A6E0B0E0EF
:10103A00E5DC9F013A932A93A7E0B0E0DFDC9F0149
:10104A00089549D08D012C813D810895EBE3F1E0AB
:10105A00FA93EA930895E02FA1E0B0E058D00895FA
:10106A000A921A92FA926A937A938A939A93AA9311
:10107A00BA93EA93FA93EFB7EA931A9310E0BB2074
:10108A00089532DDA3E0B0E099C0A0E30BDD88EC5F
:10109A0090E00197F1F708952A93AD85BE85EF8513
:1010AA00F88909950895E889F9893497E88BF98BC5
:1010BA000895AD85BE85EF85F88909950895A889B3
:1010CA00B9891496ED91FD91EE83FF83AE81BF81BC
:1010DA0008955A934A933A932A931A930A9308952E
:1010EA005D814C813B812A81198108810895AF93E2
:1010FA00BF93DB01AC0FBD1F05900D928A95E1F7F6
:10110A00BF91AF910895F195E195F0400895EE23CE
:10111A000E2EE8E01E2EFD0151F0011420F0FE2FE4
:10112A00E0E0011821F0EE0FFF1F0A94E1F708959D
:10113A00EE230E2EE8E01E2EFD0161F0011430F0C0
:10114A00EF2FF0E0E7FDFFEF011821F0F595E795A5
:10115A000A94E1F70895EE230E2EE8E01E2EFD0113
:10116A0051F0011420F0EF2FF0E0011821F0F6956C
:10117A00E7950A94E1F70895EA17FB07E1E009F019
:10118A00EE2708950024112490E1AA0FBB1F001C2A
:10119A00111C0E1A1F0A18F40E0E1F1E01C0A160A0
:1011AA009A9599F7FD01D00108950590F491E02DE3
:1011BA0008957A936A93FA93EA930895109639F008
:1011CA00A89580ED97E00197F1F71197C9F708956F
:00000001FF
